:100000000EC1000029C1000027C1000025C1000069
:1000100023C1000021C100001FC100001DC100005C
:100020001BC1000019C1000017C1000015C100006C
:100030009DC1000011C100000FC100000DC10000F2
:100040000BC1000009C1000007C1000005C100008C
:1000500003C1000001C10000FFC00000FDC000009E
:10006000FBC00000F9C00000F7C00000F5C00000B0
:10007000F3C00000F1C00000EFC00000EDC00000C0
:10008000EBC00000D4C10000E7C00000F702FA0294
:10009000FA02FA02FA02FA02FA02FA023802FA0242
:1000A000FA02FA02FA02FA02FA02FA023802FA0232
:1000B000FA02FA02FA02FA02FA02FA023F02FA021B
:1000C000FA02FA02FA02FA02FA02FA025602FA02F4
:1000D000FA02FA02FA02FA02FA02FA023F02FA02FB
:1000E000FA02FA02FA02FA02FA02FA025B02FA02CF
:1000F000FA02FA02FA02FA02FA02FA026002FA02BA
:10010000FA02FA02FA02FA02FA02FA027102FA0298
:10011000FA02FA02FA02FA02FA02FA028902FA0270
:10012000FA02FA02FA02FA02FA02FA026502FA0284
:10013000FA02FA02FA02FA02FA02FA027D02FA025C
:10014000FA02FA02FA02FA02FA02FA028B02FA023E
:10015000FA02FA02FA02FA02FA02FA028B02FA022E
:10016000FA02FA02FA02FA02FA02FA028B02FA021E
:10017000FA02FA02FA02FA02FA02FA028B02FA020E
:10018000FA02FA02FA02FA02FA02FA029302FA02F6
:10019000FA02FA02FA02FA02FA02FA02C202FA02B7
:1001A000FA02FA02FA02FA02FA02FA029302FA02D6
:1001B000FA02FA02FA02FA02FA02FA02C202FA0297
:1001C000FA02FA02FA02FA02FA02FA02A902FA02A0
:1001D000FA02FA02FA02FA02FA02FA02C502FA0274
:1001E000FA02FA02FA02FA02FA02FA02C502FA0264
:1001F000FA02FA02FA02FA02FA02FA02DA02FA023F
:10020000FA02FA02FA02FA02FA02FA02F202FA0216
:10021000FA02FA02FA02FA02FA02FA02F2021124CD
:100220001FBECFEFD0E1DEBFCDBF11E0A0E0B1E057
:10023000E8EBF7E000E00BBF02C007900D92A031A1
:10024000B107D9F721E0A0E1B1E001C01D92A238C9
:10025000B207E1F735D0AEC2D3CE9093900089B902
:1002600088E18AB986E08093950008955D9BFECF72
:100270008CB90895CF93DF93EC0102C02196F6DF8D
:1002800088818111FBCFDF91CF910895809B05C0BC
:1002900081E08093110180E0089580911101811126
:1002A000109211010895819B05C081E08093100197
:1002B00080E008958091100181111092100108953D
:1002C000CF93DF93CDB7DEB764970FB6F894DEBF58
:1002D0000FBECDBF87E690E0C0DF60E074E284EF40
:1002E00090E069D011BA8FEF80936100E12CF12C7E
:1002F00000E010E0CBDF882311F00F5F1F4FD3DF4A
:10030000882319F08FEFE81AF80A4AE050E0BE019E
:100310006F5F7F4FC80111D24AE050E0BE01655FB8
:100320007F4FC7010AD259D028EE33E040E050E0B9
:10033000D9D177D120E030E0A9016FD18111DACF96
:1003400080E091E097DFCE01019694DF86E091E0B6
:1003500091DF89E091E08EDFCE010B968BDF86E0A6
:1003600091E088DF86E091E085DFC4CF1F920F9295
:100370000FB60F9211248F939F93AF93BF938091E9
:100380007E0190917F01A0918001B0918101019641
:10039000A11DB11D80937E0190937F01A0938001E8
:1003A000B0938101BF91AF919F918F910F900FBE3C
:1003B0000F901F90189520E43FE140E050E092D16B
:1003C0008EB58A608EBDBB27A52F942F832F8BBD42
:1003D0002ABD87B7806187BF0895F89421E009C0DE
:1003E00060917E0170917F018091800190918101E7
:1003F00020E02111F5CF78940895882321F085EC31
:1004000080937400089585E880937400089585EDC5
:10041000809374008091740084FDFCCF10927D0164
:10042000089585EC8093740010927D0108951F92C9
:100430000F920FB60F9211240BB60F922F933F938A
:100440004F935F936F937F938F939F93AF93BF93DC
:10045000EF93FF9380917100E82FE87F8E2F90E05B
:10046000893C910508F0C6C0FC01EA5BFF4F5CC106
:1004700080917C018093730081E0BFDFBBC09091CD
:10048000570180915601981778F4E091570181E067
:100490008E0F80935701F0E0E85AFE4F80818093E1
:1004A000730081E0AADFA6C0B2DFA4C080E280931F
:1004B0001201ADDF9FC080E380931201A8DF9AC0D4
:1004C00088E380931201ADDF95C0E091570181E090
:1004D0008E0F80935701F0E080917300E85AFE4F31
:1004E00080839091570180915601981718F481E00C
:1004F00084DF80C080E081DF7DC0E091570181E032
:100500008E0F80935701F0E080917300E85AFE4F00
:1005100080837DDF6FC083E080937D0110921301A3
:1005200081E06BDF67C080911301803278F4E09145
:10053000130181E08E0F80931301F0E0809173002E
:10054000EC5EFE4F808381E058DF54C080E055DFD1
:1005500051C080911301803230F4E0911301F0E03A
:10056000EC5EFE4F108253DF6091130170E0E0916A
:100570007801F091790184E191E0099510921301DD
:1005800050DF38C080E039DF35C084E080937D01E2
:100590001092350110923401E0917A01F0917B01C3
:1005A000099580913401811105C081E08093340167
:1005B00010923601E091350181E08E0F8093350174
:1005C000F0E0EA5CFE4F80818093730090913501EA
:1005D00080913401981718F481E00FDF0BC080E0A0
:1005E0000CDF08C081E009DF10927D0103C010928A
:1005F00012010DDFFF91EF91BF91AF919F918F910C
:100600007F916F915F914F913F912F910F900BBE12
:100610000F900FBE0F901F90189540D008F481E006
:100620000895E89409C097FB3EF4909580957095E5
:1006300061957F4F8F4F9F4F9923A9F0F92F96E92E
:10064000BB279395F695879577956795B795F111A3
:10065000F8CFFAF4BB0F11F460FF1BC06F5F7F4F40
:100660008F4F9F4F16C0882311F096E911C0772352
:1006700021F09EE8872F762F05C0662371F096E85B
:10068000862F70E060E02AF09A95660F771F881F2A
:10069000DAF7880F9695879597F90895990F0008CE
:1006A000550FAA0BE0E8FEEF16161706E807F90744
:1006B000C0F012161306E407F50798F0621B730BDF
:1006C000840B950B39F40A2661F0232B242B252B60
:1006D00021F408950A2609F4A140A6958FEF811D03
:1006E000811D0895A1E21A2EAA1BBB1BFD010DC09E
:1006F000AA1FBB1FEE1FFF1FA217B307E407F507D2
:1007000020F0A21BB30BE40BF50B661F771F881FAD
:10071000991F1A9469F760957095809590959B0143
:10072000AC01BD01CF010895EE0FFF1F0024001C96
:100730000BBE0790F691E02D09944532510518F44F
:10074000423008F004C0FB011082CB010895BB27A2
:100750004A3031F4992322F4BDE2909581959F4F60
:1007600001C0BB27FB015527AA27880F991FAA1F85
:10077000A41710F0A41B83955051B9F7A05DAA33BC
:1007800008F0A95DA193009779F7B111B193119287
:10079000CB0100C0DC01FC01672F71917723E1F7E9
:1007A000329704C07C916D9370836291AE17BF073E
:0807B000C8F30895F894FFCF8F
:1007B8004430203A20000D0A004431203A2000003D
:00000001FF
